{
  "block_hash": "0000000000000000000e6ade9e87ac924170dfacd0fd09b297e058653f0ecee7",
  "block_height": 572755,
  "block_index": 1079,
  "hash": "e903b4a8a47f59c388838d5a0eeb9ed640074774774c1ce41b84ae8d77566850",
  "hex": "02000000000103e6aa53edd030c2a6fcc9b90ff79156c14403e2385c0f2b998f0cafe77a0bd57e00000000171600141be6fac18fa54f0b906b23f659115702b2142966feffffffc1a918362e8390fe1c9d4a724a456540571aaabdec328f9a52db4dd201592eed00000000171600141a550414f00d4068ce07f6553a5ad4269db41bc0feffffff1989c53e17c02338895e304893ce49656cd4457f6c17e53dc9953506792b5f8a00000000171600145261f593349623883be57b9278de21993e5eeb66feffffff0155681701000000001976a914cb093a23fc8d35f9e3cf53d5c131a34f735ad68588ac024730440220417ba1e5601d71af49f40b9d71fa8a88c251460620f01f029a3e02773b07ba0b02206b63d644475bd9e803892cc0924d657596e9f49fdb000acaa37bd3253e8526a301210211114b0f0a2f607eb1ba88f4237a258e1fbd720a529ae40f8a4ec70756723938024730440220669e3c03b64de60673e78c5af21058d9057f70be8214919b20bce0de06ab5bcb0220379744d9f47ae189acf6eb90b047b56cb72f9393ba8962c9d4ea3064ca6f2d070121036fc6b3d6fb11ca74b714aca2558f7c2695ad19d5b0df832dbac28c464d87acd10247304402205f0a22752e604dbf7985b86547d2230758447c39466575da49297ac691f8e37a02207423627c81630710ba65f788edf5ecc2e63618cfb57e5323b604b2595314f09b0121024dda29bdb82c85c4f8c238ae61b126c34b6160f1bd31472ee93a3f87bf0945b752bd0800",
  "addresses": [
    "1KWZE43i74CFmER2YesqD8tYjoQZntJ5vM",
    "327bewrhEXLfrC56F8m21uuTw4vQDjWXM4",
    "39zWNus297VQ8Qw9mXt7TnbN4WQAfA23d9",
    "3JqYn5KZerUnHY7BvRTtVmsowJ6BQcgK9f"
  ],
  "total": 18311253,
  "fees": 24900,
  "size": 236,
  "preference": "high",
  "relayed_by": "212.32.234.29:8333",
  "confirmed": "2019-04-22T13:34:02Z",
  "received": "2019-04-22T13:29:18.888Z",
  "ver": 2,
  "lock_time": 572754,
  "double_spend": false,
  "vin_sz": 3,
  "vout_sz": 1,
  "confirmations": 289,
  "confidence": 1,
  "inputs": [
    {
      "prev_hash": "7ed50b7ae7af0c8f992b0f5c38e20344c15691f70fb9c9fca6c230d0ed53aae6",
      "output_index": 0,
      "script": "1600141be6fac18fa54f0b906b23f659115702b2142966",
      "output_value": 3000000,
      "sequence": 4294967294,
      "addresses": [
        "39zWNus297VQ8Qw9mXt7TnbN4WQAfA23d9"
      ],
      "script_type": "pay-to-script-hash",
      "age": 571579,
      "witness": [
        "30440220417ba1e5601d71af49f40b9d71fa8a88c251460620f01f029a3e02773b07ba0b02206b63d644475bd9e803892cc0924d657596e9f49fdb000acaa37bd3253e8526a301",
        "0211114b0f0a2f607eb1ba88f4237a258e1fbd720a529ae40f8a4ec70756723938"
      ]
    },
    {
      "prev_hash": "ed2e5901d24ddb529a8f32ecbdaa1a574065454a724a9d1cfe90832e3618a9c1",
      "output_index": 0,
      "script": "1600141a550414f00d4068ce07f6553a5ad4269db41bc0",
      "output_value": 15314153,
      "sequence": 4294967294,
      "addresses": [
        "3JqYn5KZerUnHY7BvRTtVmsowJ6BQcgK9f"
      ],
      "script_type": "pay-to-script-hash",
      "age": 572721,
      "witness": [
        "30440220669e3c03b64de60673e78c5af21058d9057f70be8214919b20bce0de06ab5bcb0220379744d9f47ae189acf6eb90b047b56cb72f9393ba8962c9d4ea3064ca6f2d0701",
        "036fc6b3d6fb11ca74b714aca2558f7c2695ad19d5b0df832dbac28c464d87acd1"
      ]
    },
    {
      "prev_hash": "8a5f2b79063595c93de5176c7f45d46c6549ce9348305e893823c0173ec58919",
      "output_index": 0,
      "script": "1600145261f593349623883be57b9278de21993e5eeb66",
      "output_value": 22000,
      "sequence": 4294967294,
      "addresses": [
        "327bewrhEXLfrC56F8m21uuTw4vQDjWXM4"
      ],
      "script_type": "pay-to-script-hash",
      "age": 572269,
      "witness": [
        "304402205f0a22752e604dbf7985b86547d2230758447c39466575da49297ac691f8e37a02207423627c81630710ba65f788edf5ecc2e63618cfb57e5323b604b2595314f09b01",
        "024dda29bdb82c85c4f8c238ae61b126c34b6160f1bd31472ee93a3f87bf0945b7"
      ]
    }
  ],
  "outputs": [
    {
      "value": 18311253,
      "script": "76a914cb093a23fc8d35f9e3cf53d5c131a34f735ad68588ac",
      "spent_by": "c011bbfd1170f8b1f6734b50ee6143f20fe3ebadefab6440cc3e0a5e3ed037cc",
      "addresses": [
        "1KWZE43i74CFmER2YesqD8tYjoQZntJ5vM"
      ],
      "script_type": "pay-to-pubkey-hash"
    }
  ]
}
